:020000040001F9
:10400000D03F0020E1410100F3410100F5410100F2
:1040100000000000000000000000000000000000A0
:10402000000000000000000000000000F741010057
:104030000000000000000000F9410100FB41010008
:10404000FD410100FD410100FD410100FD41010074
:10405000FD41010000000000C9C40100FD41010054
:10406000FD410100FD410100FD410100FD41010054
:10407000FD410100FD410100FD410100FD41010044
:10408000FD41010045B00100FD410100FD4101007D
:104090005BB0010015C7010077C80100FD410100B8
:1040A000FD410100FD410100000000000000000092
:1040B0000000000000000000000000000000000000
:1040C00000F002F800F030F80CA030C808382418CE
:1040D0002D18A246671EAB4654465D46AC4201D140
:1040E00000F022F87E460F3E0FCCB6460126334242
:1040F00000D0FB1AA246AB463343184738F70000FE
:1041000058F700000023002400250026103A01D3B0
:1041100078C1FBD8520700D330C100D50B6070477F
:104120001FB51FBD10B510BD0CF076FE1146FFF790
:10413000F7FF01F0AEF80CF08EFE03B4FFF7F2FFCC
:1041400003BC0CF095FE0000401E00BF00BF00BF86
:1041500000BF00BF00BF00BF00BF00BF00BF00BF67
:1041600000BFF1D170470000401E00BF00BF00BF7C
:1041700000BF00BF00BF00BF00BF00BF00BF00BF47
:1041800000BFF1D170470000401E00BF00BF00BF5C
:1041900000BF00BF00BF00BF00BF00BF00BF00BF27
:1041A00000BFF1D17047000070B505460C461646B9
:1041B00002E00FCC0FC5103E102EFAD2082E02D30B
:1041C00003CC03C5083E042E07D301CC01C5361F1E
:1041D00003E021782970641C6D1C761EF9D270BD35
:1041E0000A48026803210A430260094880470948D7
:1041F0000047FEE7FEE7FEE7FEE7FEE7FEE700001A
:1042000005480649064A074B704700002405004050
:1042100031420100C1400100D02F0020D03F0020DA
:10422000D0370020D037002023492248086070474B
:1042300010B500F01DF8002805D021491F4848603E
:10424000C813204988612048018CC9B201290ED1C8
:10425000818C09070BD1018D0906090F042906D1AC
:10426000808D0006000F02D118490120886010BD22
:104270001548018CC9B2012917D1818C090714D1C5
:10428000018D09060A0F03D1828D1206120F0ED07E
:10429000090F012903D1828D1206120F07D00329BD
:1042A00003D1808D0006000F01D00020704701204F
:1042B000704700000024F40000200020DFFF07C04A
:1042C00000050040006C0040C00F00F000060040F8
:1042D00010B5002809D0082807D0F749884204D033
:1042E000F649884201D001F04AF910BD10B5F448F2
:1042F0000178002914D101210170F24900200870D1
:10430000F14902460870F149C870F248F049006866
:1043100006F062FF002803D0EFA2E421FFF7D8FFE8
:1043200010BD10B5E648017800290BD000210170BE
:10433000E848006806F08BFF002803D0E6A2EF21D2
:10434000FFF7C6FF10BD10B5E6490620DF4C087028
:10435000A07900280FD104F0C9FE09F0B7FB04F0E2
:1043600089F80120E049A0710978002900D00521D1
:1043700021726072E07110BD10B509F07CFBD3486A
:1043800000210172817103F0E5FD04F0D4FE10BD3F
:104390000A460146D5489BE710B5642006F042FC6A
:1043A000D34805F05CFA002804D0FF21CAA2573197
:1043B000FFF78EFFCE4805F05CFA002804D0FF21FD
:1043C000C5A25A31FFF784FF10BDF0B5BF4986780A
:1043D00000220124C74DC84F4B7C012E08D0042E6B
:1043E00005D14878184302D12A703A700C71F0BD9B
:1043F0000078002803D00228F9D14A83F0BD8878DC
:104400001843FBD11E2048832A704C703A70F0BDCF
:1044100010B502680146002A17D008460830022A63
:1044200028D0032A10D14279012A0DD1B14C22782B
:10443000002A09D1C28810311C2A1ED91C2220460C
:104440000BF0DCFC0020207710BDA0480122417E4B
:104450001143CA434176920706D08907F4D4014636
:104460003431808B7EDF10BD0021A44A084608F05D
:1044700041FA10BDFFF7A9FF10BD9E48521C0BF07A
:10448000BDFC10BD10B504460146994805F00BF976
:10449000206802280CD18D490222487E10434876BC
:1044A000C043800704D10021944A084608F022FA4C
:1044B00010BD014600B50020092901D8084600BDFD
:1044C00010390B000DF0E6F94A27292B2D2F313337
:1044D0003537392626262626263B3D3F414345478C
:1044E000494B4D2626262626264F51535557595BB4
:1044F0005D5F61262626262626636567696B6D6FDC
:1045000071737526262626262677797B7D7F818303
:1045100085878926D3E70A2000BD0B2000BD0C202B
:1045200000BD0D2000BD0E2000BD0F2000BD1020DD
:1045300000BD112000BD122000BD132000BD1420BD
:1045400000BD152000BD162000BD172000BD18209D
:1045500000BD192000BD1A2000BD1B2000BD1C207D
:1045600000BD1D2000BD1E2000BD1F2000BD20205D
:1045700000BD212000BD222000BD232000BD24203D
:1045800000BD252000BD262000BD272000BD28201D
:1045900000BD292000BD2A2000BD2B2000BD2C20FD
:1045A00000BD2D2000BD2E2000BD2F2000BD3020DD
:1045B00000BD312000BD322000BD332000BD3420BD
:1045C00000BD352000BD362000BD372000BD38209D
:1045D00000BD392000BD3A2000BD3B2000BD014692
:1045E00000B50020092901D8084600BD0A390B0092
:1045F0000DF050F9321B1D1F21232527292B2D2FAC
:1046000031333537393B3D3F41434547494B4D4FAA
:1046100051535557595B5D5F86888A8C8E90929472
:1046200096989A9C9EA0A21ADFE7102000BD112048
:1046300000BD122000BD132000BD142000BD1520B8
:1046400000BD162000BD172000BD182000BD192098
:1046500000BD202000BD212000BD222000BD232060
:1046600000BD242000BD252000BD262000BD272040
:1046700000BD282000BD292000BD302000BD312014
:1046800000BD322000BD332000BD342000BD3520E8
:1046900000BD362000BD372000BD382000BD3920C8
:1046A00000BD402000BD412000BD422000BD432090
:1046B00000BD442000BD00000330000001340000B4
:1046C000592000206C2000206D20002004200020B4
:1046D00066060000A02000202E2E5C6D61696E2E03
:1046E000630000005C2200205E200020EFBEADDEF3
:1046F00014250020502500206E2000209943010041
:10470000452000BD462000BD472000BD482000BD1B
:10471000492000BD502000BD512000BD522000BDE9
:10472000532000BD542000BD552000BD562000BDC3
:10473000572000BD582000BD592000BD010710B50D
:10474000090F092901D9002010BD0028FCD07D23C4
:10475000020BDB005A4303051B0F64246343D2188A
:104760000006000F0A2358431018401880B210BDED
:10477000FFB583B00F460CA970C9FFF79AFE6946D2
:1047800008703846FFF795FE694648701046FFF7F7
:1047900090FE694688700698FFF78BFE6946C870E0
:1047A0002046FFF786FE694608710121E8B24903F9
:1047B0004018FFF7C3FF6946C8803046FFF779FE0F
:1047C00069464871684608F0FEFA08F06DFA012063
:1047D00007B0F0BDFEB50746FF480E4601681D460E
:1047E0001446684608F066FA68460078FFF7F7FE58
:1047F000387068464078FFF7F2FE3070684680787F
:10480000FFF7EDFE20706846C488002C31D07D2172
:10481000C90020460BF053FB0603084664210BF049
:104820004EFB00023618642120460BF048FB084678
:104830000A210BF044FB000136180A2120460BF038
:104840003EFB701880B20999C0B2088068460079B2
:10485000FFF7C5FE089908706846C078FFF7BFFEED
:10486000287068464079FFF7BAFE0A99087001205F
:10487000FEBD0020E7E730B53222012400280AD02F
:10488000002512280AD003071B0F092B01D8242862
:1048900007D9104630BD0C70002030BD0D700C20C3
:1048A00030BD0209122807D90A20521E4243D018EF
:1048B000801EC0B20D7030BD0A204243D018C0B275
:1048C0000C7030BDF8B5C54C207D002801D0401ECD
:1048D0002075A07D002604270125012804D10F2082
:1048E00000F056FE002824D0A07D002820D10F2003
:1048F00000F04EFE01281FD0A07D002818D10F2007
:1049000000F046FEA07D002812D1607D01280FD165
:10491000B34925730B780620B24A002B27700ED0BE
:104920000E706675657205461070FFF70CFD2572F6
:10493000F8BDA6756775E2E7A5756675F8BD0D70DB
:1049400066750521217265721070FFF7FCFCA648A0
:104950000570F8BD01461339062902D90F3902291D
:1049600001D8123804E001462039012902D818384C
:10497000C0B27047014610390229FAD9411E0829F0
:10498000F7D9002801D00020704712207047002876
:1049900005D0964A1146491EFDD1401EFAD17047F6
:1049A000FFB58BB008A8477B1E4614463846FFF774
:1049B000C5FEC5B2002F05D0152F03D0302F01D072
:1049C000452F04D1854808213A300BF074FA844809
:1049D00001786846408E0029C0B20A9008A8007C81
:1049E000099008A8C07B089008A8807B05904CD04F
:1049F00028460E38102802D310380E2801D2C5B22E
:104A000003E02C2D01D32C3DEDB23100734B784ED9
:104A1000784836D133E0317001E06A08B154194664
:104A20005A6A0368D2184A620021016010212046A8
:104A30000BF041FA0A982070099860700898A070ED
:104A4000059808F023FA8500384608F01FFA0F2170
:104A50000BF035FA2818E070FF2020713078607173
:104A60007078A071B078E071F0782072307960725F
:104A70007079A072B079E072F079207366E0E9078E
:104A8000D4D00168002DC8D1C5E701A906A80DF052
:104A9000F9F8002000212154401C1028FADB564868
:104AA0000168564800680DF02BFB07905448564AA1
:104AB00000690168534800680D1A814203D2002042
:104AC0000546079003E0954201D9002507950A980D
:104AD0002070099860700898A070059808F0D6F9C1
:104AE0008600384608F0D2F90F210BF0E8F93018AB
:104AF000C6B2E67000202071444907980DF0A8FA6C
:104B00000CF020F96071000AA071E571280A20728A
:104B10000199284648437D21C9000BF0D0F9607205
:104B2000000AA072300AE0722673142F05D0292FD4
:104B300003D0442F01D0592F08D1314800690168B2
:104B4000304801602D4801682B48016001200FB0FA
:104B5000F0BD0146090700B5090F00200B000CF05D
:104B600099FE10090B0D0F11131517191B1D1F218D
:104B70002123250A302000BD312000BD322000BD98
:104B8000332000BD342000BD352000BD362000BDDF
:104B9000372000BD382000BD392000BD412000BDB8
:104BA000422000BD432000BD442000BD452000BD83
:104BB00030B5012001468FB008A81031144C0172A5
:104BC000216A4170206A010A08A88170206A010CDC
:104BD00008A8C170206A1DE04422002004200020A3
:104BE0005E2000205C2200205F20002036070000AD
:104BF0003E200020982300208020002090230020C9
:104C0000FC2400207C200020701700000000C84217
:104C100040000010010E08A80171616A4171606ACC
:104C2000010AC020014308A881710025057070DFCA
:104C3000002803D0FD4AFE49FFF74AFB2022FD4928
:104C40006846FFF7B1FA206A0002000FFFF781FF04
:104C500069460873206A0003000FFFF77AFF694670
:104C60004873206A0004000FFFF773FF69468873DA
:104C7000206A0005000FFFF76CFF6946C873206AC1
:104C80000006000FFFF765FF69460874206A0007F9
:104C9000000FFFF75EFF69464874142168460BF069
:104CA0000CF9684608F0B6FD69468D73E2A00AF07B
:104CB00073FC68460AF070FCE2A00AF06DFC08A9DB
:104CC0001120087268460BF077F882B269460AA88C
:104CD0007CDF002804D0D649D44A2E31FFF7F8FAF9
:104CE0000B95282168460C9581857821C185FF2187
:104CF0000586913141860BA87ADF002804D0CC4983
:104D0000CA4A3B31FFF7E4FA0FB030BD1FB5CE48B9
:104D1000016B002924D0012101631421CB480BF041
:104D2000CCF8CA480021017041600172C84A028271
:104D30004182684607F0BEF8002804D0BC49BB4A4F
:104D4000ED31FFF7C5FA062000F045FCBF4873DFE0
:104D5000002804D0B649B54AFE31FFF7B9FA1FBDA5
:104D60000221D9E710B5B14ABA49FFF7B1FA10BD2F
:104D7000B84910B5AD4A0A31FFF7AAFA10BDB549D6
:104D800010B5AA4A3931FFF7A3FA10BDF8B5AE4CF9
:104D90000188A38B0126172939D00CDC00251029A6
:104DA0001BD0112936D0132916D1224634320021C6
:104DB00018467FDF08E0192955D0392901D0552937
:104DC0000AD11321184676DF0746380004D0A149DE
:104DD000964AD031FFF77CFAF8BDE572A67266718B
:104DE00025638088A0839C48657600780028F3D1ED
:104DF00002F053FDE06A02F085FC0028ECD0257239
:104E00009649667206200870FFF79DFAF8BDFFF715
:104E1000C3FAF8BDA572E572E570FFF782FA0020CB
:104E2000C043A08306F069FF002804D089497F4A67
:104E30008E31FFF74DFA04F039FD071E04D0854985
:104E40007A4A9131FFF744FAA07B002802D1FFF79C
:104E50005DFF6673E07C0028B7D0892008F0FDFB79
:104E6000E57400F08CFB80790028D2D1A07B00286B
:104E7000CFD1FFF74BFF6673F8BD10B5044606F0BF
:104E8000E0FE204605F090FF70482146283804F0E7
:104E900012FC6E4821465C3804F0E7FD2046FFF71F
:104EA00075FF10BD10B505F01EF810BD70B50446B5
:104EB0000D4608460AF080FF2080656070BD10B581
:104EC000614996B01831664862DF002803D0574A1E
:104ED0006449FFF7FDF914AC6348A11C62DF0028A8
:104EE00004D00721514A0902FFF7F2F9A11C5F48DB
:104EF00062DF002804D05B494C4A891DFFF7E8F9BE
:104F0000A11C5B4862DF002804D05649474A09319A
:104F1000FFF7DEF94D48122114380AF0CEFF55484C
:104F2000109012201290494810A91438139052483A
:104F300011904648283804F043FC002804D0494921
:104F40003A4A1431FFF7C4F904F0BAFC002804D03F
:104F50004449364A1D31FFF7BBF93C48283804F074
:104F600092FC002804D03F49304A2131FFF7B0F9C4
:104F7000402168460AF0A1FF40A16846FFF796FF6E
:104F80000120014608A8103101770020014608A839
:104F90004177684605F0D2FA002804D03149234A07
:104FA0002F31FFF795F916B010BD70B58AB001200A
:104FB0006A4610731D205073AC2090735025D57332
:104FC000462414740499039808F01BFB21462846D4
:104FD0000CF062FF00246A46547014700726967025
:104FE000D47014712546684605700199009808F040
:104FF00054FB6D1C052DF6DB684644720671447146
:1050000086713021C171642101720299019808F002
:105010008FFB084C083C6068099009A808F0E2FB87
:1050200028340FCC05AD0FC514A12FE0D8460100E0
:105030007E040000D82102004465764E616D653A19
:10504000000000000A000000042000203C25002091
:1050500008080000AD0500005E2000205C22002052
:1050600006220200FD06000016220200262202008F
:105070003622020011440100654D010053504320C7
:105080004649542050554C534500000005A80AF0ED
:105090006DFE05A808F0B6FBFE4808F0C3FB0AB099
:1050A00070BD1CB5044607F01CFD68460471002362
:1050B000012201A9302007F07CFD0028F7D0012350
:1050C0001A466946312007F074FD0028F7D068467B
:1050D000047807F0EFFE20461CBD10B5044600F032
:1050E0006DFAED48202C04D0082C04D0012C08D0F7
:1050F00003E0EA4900E0EA49016200F04FFA0020CB
:1051000010BD0121C903F7E738B50D46044607F085
:10511000E8FC68460470457001230222694630208D
:1051200007F047FD0028F7D007F0C4FE38BDF0B502
:10513000DD4C93B0DB482060DC486060DC48A06058
:1051400020460CF023FE0020FFF7ABFFD2490025DC
:1051500088626846057307F0B2FF01F0E1FE03A81C
:1051600008F08BFA6846007B15260427002835D006
:105170000120FFF71AFF6846057303A808F085FAB7
:10518000CC4808F057FB02F04FFB6846C680077119
:105190000721C1700691002181703322089142706D
:1051A00005920170022504914571009701960295C0
:1051B00004A80BC8089AFFF7DBFA0028F5D021698C
:1051C00000200860BC490860BC49086021690A6881
:1051D000BB490A60BB49086013B0F0BDB54808F090
:1051E00029FB02F021FB0DA808F013FA08A8017EA4
:1051F000C07D0CF051FE11A807F04FFF04A900205C
:1052000008F041F8216904980860AB4805990160ED
:10521000AA48079A026020690268A9480260A94862
:10522000016008A8807B002810D108A8C07B002856
:105230000CD16846468608A807742021C17308214E
:1052400081733021417305730221417408A8427CA7
:105250006846418E08A8007C6B4607C308A8C37B3C
:10526000827B417B007BFFF783FAB5E770B509F0DD
:1052700092FB01247D25ED00284605F0D3FC641C3B
:10528000052CF9DB70BDF0203ADF002039DF00F09B
:1052900076F988B003F02AFF8B48012606608B4818
:1052A0003104C16088491C390E60710281608648F2
:1052B000002514380560C82005F0B4FC03F0E9F8B7
:1052C0008349012007F05AF9002803D081A28449BC
:1052D000FEF7FEFF03F0A5FA00F0C2F97C4A0A21AE
:1052E0006432082007F0F2FA002803D079A27D4941
:1052F000FEF7EEFF002404F05DFE002804D078499C
:1053000074A29439FEF7E4FF77480290774803903F
:105310006846847101A806F006FE002804D0704992
:105320006CA28839FEF7D4FFFFF742FCFFF7C7FDF8
:105330006F4801905C4801A91C3804F0C2FB0028AA
:1053400004D0674963A25E31FEF7C2FF1C2101A8A9
:105350000AF0B3FD052040040290801003900195EF
:1053600003216846017445820675624807900695D8
:1053700001A805F090FC002804D0594955A2B9397C
:10538000FEF7A6FF00F05AF95B4A0521012007F05D
:10539000CBF9002804D052494EA24331FEF798FFC2
:1053A000FFF7C5FE00200CF011FA08F08FFB6846ED
:1053B00008F05BF968460078892803D0902801D06E
:1053C000FFF754FF9A2008F048F9012009F096FEF3
:1053D00000F0E4F803F04EF8FFF798FC2E4C0020A4
:1053E000667302F087FA454801210022C90300686C
:1053F00005F0F2FE06F0BBFFE675FEF7A4FF02F033
:1054000013FA3F4800270570E06A02F07BF9002894
:105410001AD10A2000F0BCF800280CD014E0632F49
:1054200009DDA57426746672FEF78DFF35490620E6
:1054300008700B20207238467F1C642804DA0A208A
:1054400000F0A6F80028EAD0012120488905C160B3
:105450002D4805702D48057002F070FD2C4FA07B83
:1054600000285CD0E07B00285AD1E67300F0A6F853
:105470000BF030FD0BF02EFD0BF02CFD03F05BFE6E
:1054800074DF6573002801D074DF65730BF022FDB3
:1054900040E000001027000004200020FF0300006F
:1054A000FF0F000009510100FC240020A35001005F
:1054B000DB5001006420002090230020C82200203F
:1054C0007C20002080200020400700500005005074
:1054D000CC2300202E2E5C6D61696E2E63000000CF
:1054E0008706000025080000854401007F4D01006B
:1054F000C1720100714D010041B7010098200020E8
:10550000502500205C2200205B2000205820002035
:105510005C2000200BF0DEFC0CF046F900E0E573A7
:105520003878002820D0FF206946087101A808F0CB
:10553000ACF808F0CBFA002008F068FA5AA2022171
:10554000002008F05FFB02A812DF002803D05B4AAE
:105550005B49FEF7BDFE6846007A002804D0F020C3
:105560003ADFA02039DF2ADF07F03AFA3DDF0028D2
:1055700000D174E7514A5349FEF7AAFE6FE7BFF323
:105580004F8F52495048C860BFF34F8F00BFFDE7AF
:105590004F490969C140C807C00F704710B54D4851
:1055A0000022016A4C48006805F016FE002804D06D
:1055B000FF21424A3131FEF78BFE10BD10B546483F
:1055C000006805F044FE002804D0FF213B4A383132
:1055D000FEF77EFE10BD00B5A1B0062108A8017738
:1055E0003E483F4900681190487B0A7B0102114305
:1055F00010A801803748017E10A881703C216846C0
:105600000AF05BFC01216846417101810FA80390FB
:105610006846818211A806903C2112A80AF04DFC30
:105620000220129012A9684605F0ACF9002803D0B8
:10563000224A2C49FEF74CFE21B000BD25491E2010
:1056400034310880887801221043E1221040DF22A3
:105650000C30104088700720C87010200871704707
:1056600010B5002350222049082007F0D7F8002861
:1056700004D01449114A3D39FEF72AFE1B4807F0B1
:10568000EAF8002804D00F490C4A3839FEF720FE0A
:10569000174807F0E8F8002804D00A49074A3439C7
:1056A000FEF716FE10BD00004669726D77617265E7
:1056B000205570677261646500000000D4540100D9
:1056C00002080000F10600000400FA0500ED00E009
:1056D000000500500420002094200020D02102006A
:1056E000062202000D050000E02300207B4E010091
:1056F000A54E01000021C173C27B435C491CD21836
:10570000C2730F29F8DBD0B2704770B50D4604465E
:10571000FFF7F0FFE0732A462146FE4804F0F7F950
:10572000082805D0002803D0FBA23921FEF7D0FDC0
:1057300070BDF0B5FC4987B04978002902D1FB4A19
:105740000121117001F04CFE00256C4600280095E7
:105750000195029503955CD009202070F548F44925
:1057600000680CF075FC0BF0EDFAF34E326911682D
:1057700049024B0E69464B7011880B0A69468B70C3
:105780001278CA70020CCA71020A0A72487204A91D
:1057900005A80CF077FA3769049E38687D217043BC
:1057A000C9000AF08CFB000C6946887238687D21BC
:1057B0007043C9000AF083FB000A6946C872386862
:1057C0007D217043C9000AF07AFB69460873DB4803
:1057D0003C2100680AF073FB020A69464A73887329
:1057E000CD730020C97B225C401C8A186946CA73AD
:1057F0000F28F7DB1022C74804F089F9082805D0E4
:10580000002803D0C4A26121FEF762FD012007B089
:10581000F0BD8920207021460020C97B225C401CFD
:105820008A182146E2730F28F7DB1022B94804F0EA
:105830006EF9082805D0002803D0B7A27221FEF720
:1058400047FD0020E3E770B50646B7488EB04078C4
:1058500000282CD1304601F0C3FD00256C460028FD
:1058600005D0707804A907F00EFD002822D0C321CE
:1058700068460170457002202554401C1028FBDB4F
:1058800000206A46D17B225C401C89186A46D1738D
:105890000F28F6DB102269469E4804F038F90828E4
:1058A00005D0002803D09CA2DE21FEF711FD0020C8
:1058B0000EB070BD0498002811D0A149707808700E
:1058C0006846A049408E087008A89F49007C08706F
:1058D00008A89E49C07B0870FEF708FD1FE025540C
:1058E000401C1028FBDB432168460170FF214170FA
:1058F00000206A46D17B225C401C89186A46D1731D
:105900000F28F6DB10226946824804F000F90828C7
:1059100005D0002803D080A2BD21FEF7D9FC0120CC
:10592000C6E7F0B58DB0064601F05AFD00246D467D
:10593000002805D0707804A907F0A5FC002823D022
:10594000872168460170447002202C54401C1028A6
:10595000FBDB00206A46D17B2A5C401C89186A4622
:10596000D1730F28F6DB102269466A4804F0CFF89D
:10597000082806D0002804D0FF2167A24B31FEF78B
:10598000A7FC00200DB0F0BD6946401CCC73102868
:10599000FADB07270F7008464C7071788170418ED2
:1059A000C17008A8017C6846017108A8C17B6846DF
:1059B00041710498010C684681710498010A684697
:1059C000C1710499017244728472C4725849059875
:1059D0000CF03EFB0BF0B6F90146020C6846027370
:1059E0000A0A4273817300206A46D17B2A5C401CFC
:1059F00089186A46D1730F28F6DB1022694645489C
:105A000004F085F8082806D0002804D0FF2142A21F
:105A10000D31FEF75DFC6846077001214170717819
:105A20008170418EC17008A8017C6846017108A888
:105A3000C17B6846417106980BF084F9002826D096
:105A4000020C69468A71020ACA710872079869468F
:105A5000020A4A728872CC72002003946A46D17B93
:105A60002A5C401C89186A46D1730F28F6DB102285
:105A70006946284804F04BF8082806D0002804D0CE
:105A8000FF2125A23531FEF723FC01207AE7684685
:105A90008471C4710472D9E7F0B589B0064601F08B
:105AA0009FFCA32100256C4600287CD001203056A5
:105AB000002865DB7278042A62D82274B178617498
:105AC000F178A1743179E174002205212575012056
:105AD000735C012B02D0002B06D00AE0237D074621
:105AE00097403B43237504E0277D034693409F4343
:105AF0002775491C521C0C29EADB0599049807F00C
:105B0000CCFD232168460170457002202554401CBD
:105B100010281DE0E02400202E2E5C6576656E7452
:105B2000426C652E630000005820002007200020F2
:105B30000000C84290230020FC240020C82200203E
:105B40004A2000205320002054200020552000200F
:105B5000DCDB00206A46D17B225C401C89186A4647
:105B6000D1730F28F6DB10226946FB4803F0CFFF04
:105B7000082824D0002822D0FF21F84A8B311CE0CD
:105B80002170657002202554401C1028FBDB00208A
:105B9000E17B225C401C8A182146E2730F28F7DB68
:105BA0001022ED4800E00DE003F0B1FF082806D018
:105BB000002804D0FF21E94A9F31FEF789FB01202C
:105BC00009B0F0BD2554401C1028FBDB21700020DB
:105BD000E17B225C401C8918E1730F28F8DB10225E
:105BE0002146DD4803F093FF082806D0002804D0A2
:105BF000FF21DA4AB531FEF76BFB0020E0E770B514
:105C000086B0054601F0ECFB00266C46002833D038
:105C100069782174A9786174E978A1742979E174AB
:105C200069796175A97921750599049807F080FD56
:105C300000202654401C1028FBDB252168460170FB
:105C4000C67300206A46D17B225C401C89186A46D4
:105C5000D1730F28F6DB10226946BF4803F057FFC7
:105C6000082806D0002804D0FF21BC4ADA31FEF70C
:105C70002FFB012006B070BD2654401C1028FBDB12
:105C8000A5212170E6730020E17B225C401C89186D
:105C9000E1730F28F8DB10222146AF4803F037FFED
:105CA000082806D0002804D0FF21AC4AEE31FEF7C8
:105CB0000FFB0020DEE77FB501F092FB0024694670
:105CC000002844D00120A64B0204DA60A54AA64D64
:105CD0001070E8702870AC7100200C54401C102823
:105CE000FBDB12220A70CC730020CA7B0B5C401CC9
:105CF000D218CA730F28F8DB1022974803F007FF69
:105D0000082805D0002803D0944A9849FEF7E0FA05
:105D100097483B21008876DF082806D0002804D069
:105D200092498E4A491DFEF7D3FA74DF91480470F8
:105D30000020FFF73AF92C70EC70002007F066FEA7
:105D4000FEF71AFB07F087F9012004B070BD0C5470
:105D5000401C1028FBDB92220A70CC730020CA7B07
:105D60000B5C401CD218CA730F28F8DB10227A484B
:105D700003F0CDFE082806D0002804D04B21774A36
:105D8000C900FEF7A5FA0020DFE71FB501F028FBE8
:105D900000216A46002829D000201154401C1028F8
:105DA000FBDB382313707048D173C07800281AD0F9
:105DB00051700020D17B135C401CC9181346D1736D
:105DC0000F28F7DB10221946634803F0A0FE0828CD
:105DD00006D0002804D06549604A4631FEF778FABB
:105DE000012004B010BD01205070E2E71154401CA6
:105DF0001028FBDBB8231370D1730020D17B135C18
:105E0000401CC9181346D1730F28F7DB102219461E
:105E1000514803F07CFE082806D0002804D05349DE
:105E20004E4A5A31FEF754FA0020DAE7F0B585B051
:105E300001F0D6FA002500283FD04B480126817991
:105E400006247140817104724B4A4C484C4F002922
:105E50002CD00521117006703C7001200BF0B6FCAF
:105E60004148C671FEF76FFA3C70009501950295A6
:105E70004921684603950170C57300206946CA7BB5
:105E80000B5C401CD218CA730F28F8DB1022324872
:105E900003F03DFE082806D0002804D033492F4ADD
:105EA0008631FEF715FA012005B0F0BD14700670BA
:105EB0003C7000200BF08AFCD4E700950195029518
:105EC000C921684603950170C57300206946CA7BE5
:105ED0000B5C401CD218CA730F28F8DB10221E4836
:105EE00003F015FE082806D0002804D0B3211B4A71
:105EF0008900FEF7EDF90020D6E77FB5064601F0F0
:105F00006FFA00246D46002804D0307807F044FA78
:105F1000002837D000940194029408216846039425
:105F20000170C47300206A46D17B2A5C401C89182A
:105F30006A46D1730F28F6DB10226946064803F043
:105F4000E6FD082806D0002804D00849034AC131DC
:105F5000FEF7BEF90020F8E6E0240020185B0100FF
:105F600000050050122000205820002035020000BB
:105F700020200020112000200C2000200D200020D7
:105F80005C2200200094019402940421684603944A
:105F90000170C47300206A46D17B2A5C401C8918BA
:105FA0006A46D1730F28F6DB10226946FE4803F0DB
:105FB000AEFD082806D0002804D0B921FB4A89008C
:105FC000FEF786F90120C0E61FB5044601F008FA85
:105FD00000226946002829D06378F548002B02D0BA
:105FE000012B03D003E00123C37000E0C270002046
:105FF0000A54401C1028FBDB37230B70CA730020A7
:10600000CA7B0B5C401CD218CA730F28F8DB102225
:10601000E54803F07CFD082806D0002804D0632161
:10602000E24AC900FEF754F90120DAE60A54401C9E
:106030001028FBDBB7230B70CA730020CA7B0B5CF4
:10604000401CD218CA730F28F8DB1022D64803F080
:106050005EFD082806D0002804D0CB21D34A890051
:10606000FEF736F90020BCE67FB5064601F0B8F928
:1060700000256C46002833D07078FF210004090405
:106080000840B178FF220902120211400843F1785A
:10609000C74E0843F06007F0C5FBB57000202554DB
:1060A000401C1028FBDB0B2168460170C5730020E3
:1060B0006A46D17B225C401C89186A46D1730F283E
:1060C000F6DB10226946B84803F021FD082805D008
:1060D000002803D0B54AB749FEF7FAF8012034E6A4
:1060E0002554401C1028FBDB8B212170E573002018
:1060F000E17B225C401C8918E1730F28F8DB102239
:106100002146A94803F003FD082806D0002804D042
:10611000A849A64A1731FEF7DBF8002015E61FB59F
:10612000044601F05DF900226946002805D0637835
:106130009F48002B20D0012B20D000200A54401C67
:106140001028FBDB8F230B70CA730020CA7B0B5C0B
:10615000401CD218CA730F28F8DB1022924803F0B3
:10616000D6FC082806D0002804D0F9218F4A8900DF
:10617000FEF7AEF8002034E6027001E00123037060
:1061800000200A54401C1028FBDB0F230B70CA733D
:106190000020CA7B0B5C401CD218CA730F28F8DBA6
:1061A0001022814803F0B3FC082806D0002804D050
:1061B00080497E4A7431FEF78BF8012011E61FB545
:1061C00001F00EF900216A46002829D00020115460
:1061D000401C1028FBDB4F201070754813460078D8
:1061E00000281BD001205870D1730020D97B135C8C
:1061F000401CC9181346D1730F28F7DB102219462B
:10620000694803F084FC082806D0002804D06949B6
:10621000664AAC31FEF75CF80120E2E55170E3E735
:106220001154401C1028FBDBCF231370D1730020C6
:10623000D17B135C401CC9181346D1730F28F7DBC0
:1062400010221946584803F062FC082806D000289E
:1062500004D05849554AC031FEF73AF80020C0E54D
:106260007FB501F0BDF800246D4600282ED05048BF
:106270000C3007F0DFFA00202C54401C1028FBDB08
:106280004B21684601704A48C16868460A0C427052
:106290000A0A8270C170C47300206A46D17B2A5CEE
:1062A000401C89186A46D1730F28F6DB1022694614
:1062B0003D4803F02CFC082806D0002804D03D49B6
:1062C0003A4AFF31FEF704F801203EE52C54401C09
:1062D0000F28FBDBCB212970EC730020E97B2A5CC3
:1062E000401C8918E9730F28F8DB102229462E4834
:1062F00003F00DFC082806D0002804D047212B4AC3
:106300000901FDF7E5FF00201FE530B587B001F07A
:1063100067F800256C46002831D000202554401C29
:106320001028FBDB04A806F0B8FE6846017C41702B
:10633000417C8170817CC170C17C0171417D417162
:10634000017D817126210170C57300206A46D17BD1
:10635000225C401C89186A46D1730F28F6DB102294
:106360006946114803F0D3FB082805D0002803D064
:106370000E4A1149FDF7ACFF012007B030BD25548E
:10638000401C1028FBDBA6212170E5730020E17B77
:10639000225C401C8918E1730F28F8DB102221468B
:1063A000014803F0B4FB09E0E0240020185B010081
:1063B000582000205A030000CA040000082805D015
:1063C000002803D0FD4AFE49FDF782FF0020D4E7F4
:1063D00030B589B0054601F003F8A42200216C46CF
:1063E000002866D000202154401C1028FBDB01202F
:1063F000285600283DDB687805283AD20020E17B4A
:10640000225C401C89182246E1730F28F7DB242107
:106410001170687804A907F04DF96846017C417055
:10642000417C8170817CC170C17C0171017D05203E
:106430000122431F0D46DD40EB0700D02254401CD3
:106440000C28F6DB00206A46D17B225C401C8918B0
:106450006A46D1730F28F6DB10226946D94803F04B
:1064600056FB082822D0002820D0D549D34A3F31F6
:106470001AE000202154401C1028FBDB22706170C0
:106480000020E17B225C401C8918E1730F28F8DBB7
:1064900010222146CB4803F03AFB082806D00028FA
:1064A00004D0C749C54A5431FDF712FF012009B095
:1064B00030BD2154401C1028FBDB22700020E17B02
:1064C000225C401C8918E1730F28F8DB102221465A
:1064D000BC4803F01CFB082806D0002804D0B849AB
:1064E000B64A6931FDF7F4FE0020E0E770B58EB0E2
:1064F000064600F075FF00256C46002837D07078FE
:1065000004A906F0C0FE00216554491C1029FBDBDC
:10651000717868464170418E817008A8017C684698
:10652000C17008A8C17B6846017108A80178684657
:10653000017308210170C57300206A46D17B225C7B
:10654000401C89186A46D1730F28F6DB1022694671
:106550009C4803F0DCFA082806D0002804D09849AB
:10656000964A8D31FDF7B4FE01200EB070BD255462
:10657000401C1028FBDB88212170E5730020E17BA3
:10658000225C401C8918E1730F28F8DB1022214699
:106590008C4803F0BCFA082806D0002804D00B2150
:1065A000864AC901FDF794FE0020DEE7F0B587B00A
:1065B000054600F015FF822700266C4600284FD0C4
:1065C000697928790BF068FC002818D068460770B4
:1065D00001202654401C0F28FBDB6846C77310229D
:1065E0006946784803F093FA082806D0002804D0BA
:1065F0007349724ADB31FDF76BFE07B0F0BD697875
:1066000068460174A9784174E97881742A79C27462
:106610006979017510460BF03FFC0599049806F066
:10662000F0FF00202654401C1028FBDB02206946A6
:10663000087000206A46D17B225C401C89186A469B
:10664000D1730F28F6DB102269465E4803F05FFA2B
:106650000828D2D00028D0D05949584ACD31CAE7AD
:10666000277001202654401C0F28FBDBE773102203
:106670002146544803F04BFA0828BED00028BCD06D
:106680004F494E4AEC31B6E730B587B000F0A8FE6E
:1066900000256C46002831D004A806F0BAFF00217E
:1066A0006554491C1029FBDB422168460170017CBE
:1066B0004170417C8170817CC170C17C0171017D20
:1066C0004171A01D06F0B4FF00216A46D07B625CD8
:1066D000491C80186A46D0730F29F6DB10226946E0
:1066E000384803F014FA082806D0002804D05F21A7
:1066F000324A0901FDF7ECFD01203EE6C220207080
:10670000214601202554401C0F28FBDB8220C87342
:1067100010222C4803F0FBF9082805D0002803D0EC
:10672000264A2949FDF7D4FD002026E6F0B58DB0B4
:10673000044600F055FE002871D007AD681D471CC7
:1067400008AE099009980290EB1CAA1C691C0197DD
:10675000009607A8FEF73EF80028F3D06578684653
:10676000C580A6780671E178C1700B91227982709C
:106770000A92627942700992A27902700C92E479CD
:1067800001274471002D28D0002E26D0C07F8842DA
:1067900008D108A80178B14204D16846408CC1B242
:1067A000A94205D0094847710899079807F04AF8A7
:1067B00000960195029409A90EC909E0185B010031
:1067C000DE040000E0240020010600005820002024
:1067D0000C98FDF7CDFF0028EAD00020044603A95D
:1067E0000C54401C1028FBDB68460773C776102248
:1067F000FE4803F08CF9082805D0002803D0FC4A95
:10680000FC49FDF765FDFC480770FDF79CFDFB4862
:10681000FB490470062008700DB0F0BDFFE781222F
:10682000684602730120002103AB1954401C0F2855
:10683000FBDB6846C27610221946EC4803F067F984
:106840000828E9D00028E7D0EA49E94A1831FDF7DD
:106850003FFDE1E730B589B000F0C2FD002503AC93
:1068600000283ED008A8013008AA411C0092831ECF
:106870000290C21E019107A8411CFDF7ABFF412009
:106880006946087301202554401C1028FBDB08468C
:10689000498C417308A8017868468173C17FC17330
:1068A000817F0174417F4174017F817408A8417820
:1068B0006846C17400206A46D17E225C401C89185B
:1068C0006A46D1760F28F6DB102203A9C74803F0E9
:1068D0001EF9082825D0002823D0C649C44A3D31D6
:1068E0001DE0C1206946087301202554401C102872
:1068F000FBDB00206A46D17E225C401C89186A4678
:10690000D1760F28F6DB10222146B84803F0FFF8B5
:10691000082806D0002804D0B649B54A4F31FDF703
:10692000D7FCC4E5F0B587B000F05AFD00246D46F1
:1069300000286DD000202C54401C1028FBDBB248EE
:10694000B04900680BF084FB0AF0FCF94822694664
:10695000AE4E0A70326911680B0C69464B70118893
:106960000B0A69468B701278CA70020CCA71020A4F
:106970000A72487204A905A80BF084F93769049ECD
:10698000386870433FD07D21C90009F098FA000CA7
:106990006946887238687D217043C90009F08FFA12
:1069A000000A6946C87238687D217043C90009F041
:1069B00086FA69460873964900200A68002A03D0BF
:1069C0003C21104609F07BFA020A69464A73887333
:1069D000CC7300206A46D17B2A5C401C89186A4629
:1069E000D1730F28F6DB10226946804803F08FF838
:1069F000082806D0002804D07E497D4A8431FDF75E
:106A000067FC0120F9E568468472C4720473D2E71A
:106A10002C54401C1028FBDBC8212970EC7300208B
:106A2000E97B2A5C401C8918E9730F28F8DB1022E7
:106A300029466E4803F06BF8082806D0002804D0D9
:106A40006C496B4A9831FDF743FC0020D5E57FB5D2
:106A5000064600F0C5FC00256C4600282BD0701CB3
:106A600006F0DFFD00950195029505206946039526
:106A7000087000206A46D17B225C401C89186A4657
:106A8000D1730F28F6DB10226946584803F03FF80F
:106A9000082806D0002804D03721554A4901FDF7BF
:106AA00017FC322004F0BEF8892006F0D6FDFEF770
:106AB000EAFB012009E485210095019502950395E3
:106AC0002170E5730020E17B225C401C8918E17392
:106AD0000F28F8DB10222146444803F018F8082854
:106AE00006D0002804D04349414ACA31FDF7F0FBE3
:106AF000002009E41FB500F073FC00216C4600285B
:106B0000009101910291039124D01320207000F094
:106B1000C4FE4048006800F0F5FD6946487000205A
:106B20006A46D17B225C401C89186A46D1730F28C3
:106B3000F6DB102269462D4802F0E9FF082806D04E
:106B4000002804D02B492A4AE531FDF7C1FB01207A
:106B500004B010BD93222270E1730020E17B225C1F
:106B6000401C8918E1730F28F8DB102221461F48CA
:106B700002F0CDFF082806D0002804D01D491C4A89
:106B8000F631FDF7A5FB0020E2E71FB500F028FC79
:106B9000002269460028009201920292039245D099
:106BA000222008701C48426AC023120A1A434A7005
:106BB000426A0B468A70026A120ECA70026A120C8E
:106BC0000A71026A120A4A71006A88710020DA7B2F
:106BD0000B5C401CD2180B46CA730F28F7DB10223F
:106BE000024802F094FF08281ED017E0E02400209D
:106BF000185B01002F0600000D2000200C20002053
:106C00005C2200200000C84290230020FC240020C9
:106C1000C82200203020002040000010002803D0AF
:106C2000FD4AFE49FDF754FB012091E7A2230B70BA
:106C3000CA730020CA7B0B5C401CD218CA730F2891
:106C4000F8DB1022F64802F062FF082806D0002880
:106C500004D0F249F04A1131FDF73AFB002077E702
:106C60007FB500F0BDFB00246D4600280094019420
:106C70000294039434D02720287031206870A870C3
:106C80003720E87001202871162068710820A8714B
:106C90000520E871FD20287228460522E1490A30C6
:106CA00009F0ACF80020FEF7FCF969464872CC7395
:106CB0000020C97B2A5C401C8A186946CA730F28C9
:106CC000F7DB1022D64802F022FF082806D0002861
:106CD00004D0D249D04A3A31FDF7FAFA0120E9E668
:106CE000A7212970EC730020E97B2A5C401C8A18DC
:106CF0002946EA730F28F7DB1022C94802F007FF84
:106D0000082806D0002804D0C449C34A4B31FDF7F7
:106D1000DFFA0020CEE61FB500F062FB00226946D4
:106D2000002820D000200A54401C1028FBDB2E2312
:106D30000B70CA730020CA7B0B5C401CD218CA734C
:106D40000F28F8DB1022B64802F0E1FE082806D032
:106D5000002804D0B149B04A6A31FDF7B9FAFEF70C
:106D600092FA0120F4E6AE2300920192029203927D
:106D70000B70CA730020CA7B0B5C401CD218CA730C
:106D80000F28F8DB1022A64802F0C1FE082806D022
:106D9000002804D0A149A04A7D31FDF799FA0020CE
:106DA000D6E6F0B585B0044600F01AFB00256E4625
:106DB00000284FD06078012110229B4F00280AD074
:106DC00001280CD0022821D003281FD0042813D07A
:106DD000052819D01AE0954802E0A27004E0944812
:106DE0000170A0781028F8D8A278E11C8E4809F02C
:106DF00005F8A0783D5409E08E488F4905700620BB
:106E00000870FDF7B9FA01E08C4805804D2069460D
:106E1000087001203554401C1028FBDBCD73002086
:106E20006A46D17B325C401C89186A46D1730F28B0
:106E3000F6DB102269467A4802F069FE082806D07F
:106E4000002804D07549744ABB31FDF741FA01208E
:106E500005B0E2E4CD2100950195029503953170CE
:106E6000F5730020F17B325C401C8918F1730F2808
:106E7000F8DB102231466A4802F049FE082806D0A5
:106E8000002804D08121644A0901FDF721FA00207D
:106E9000DEE77FB500F0A4FA00256C4600280095D7
:106EA00001950295039520D046212170601C06F0C3
:106EB00027FA6846C57300216A46D07B625C491C8C
:106EC00080186A46D0730F29F6DB102269465448B1
:106ED00002F01DFE082806D0002804D04F494E4A73
:106EE000E831FDF7F5F90120E4E5C6212170E573ED
:106EF0000020E17B225C401C8918E1730F28F8DB3D
:106F000010222146464802F002FE082806D000283A
:106F100004D04249404AF831FDF7DAF90020C9E5CA
:106F20000020414902462031C300C318401CC0B2B2
:106F3000CA540528F8D3704770B588B004786946FC
:106F40000C740146082202A808F058FFE000364EF3
:106F500025182036A9190922684608F04FFF002499
:106F6000745569460878342870D078DC12286FD0C0
:106F70000BDC03000AF08EFC1032ACB832FEFD329E
:106F8000C9D1C1C5E1323232FC3225286ED02FDCA6
:106F900022286CD024DC13286AD020281ED10D466C
:106FA0000494059406942846079400F019FA0028E2
:106FB0005FD02020694608740622691C204808F02A
:106FC0001DFFFDF7C0F91C490A2008701D481E4925
:106FD00004700D200870012008F090F808B070BD12
:106FE000232871D02428F9D10846FFF7F1F9F5E7F5
:106FF00026286AD0272869D02E2868D03328EDD1DA
:107000000D460494059406942846079400F0E8F988
:10701000002871D033201CE0185B010044070000F9
:10702000E02400206C3702005025002005200020BD
:10703000082000200B2000205C2200201E200020C1
:107040004D200020492000200C20002019E106E0FE
:10705000B7E069460874681C06F072FCECE0012693
:10706000F94D4B286DD014DC373803E05DE0BCE00F
:10707000B7E01DE103000AF00DFC139CA00B0B0B05
:107080000BF00B0B0B2F3B4C0B0BC86833A80B0002
:10709000A4E796286FD00BDC4D286DD04F286CD01C
:1070A00055286BD06A2899D1084600F09EFA95E7DA
:1070B000972873D0982872D0992871D0A9288DD19B
:1070C000084600F0EDF989E72BE032E091E094E02A
:1070D0000846FFF72BFB81E70846FFF7BBFB7DE780
:1070E0000846FFF71FFC79E70846FFF75FFA75E7E8
:1070F0000846FFF7C9FA71E7C1E00846FEF719FB39
:107100006CE7084600F07BF968E70846FEF709FCE3
:1071100064E70846FEF797FB60E70846FFF7E6F9E5
:107120005CE70846FEF7B8FC58E70846FEF767FD3F
:1071300054E70846FFF7E9F850E70846FEF794FFE2
:107140004CE70846FFF78CF848E7002004A90C54E8
:10715000401C1028FBDB47206A46107400206B4659
:10716000DA7F0B5C401CD2186B46DA770F2806E0FA
:1071700017E032E02DE04CE043E016E09CE0EEDB6F
:107180001022B24802F0C3FC082805D0002803D022
:10719000AF4AB049FDF79CF82E711FE73DE050E083
:1071A0005EE00846FEF7BBFF18E70846FFF707F862
:1071B00014E70846FEF708FF10E70846FEF7E5FD6E
:1071C0000CE70846FEF777FD08E70846FEF72EFEB7
:1071D00004E70846FEF791FE00E70846FFF737FC94
:1071E000FCE60846FFF786FCF8E60846FFF7CDFC0C
:1071F000F4E60846FFF734FDF0E60846FFF78BFD9E
:10720000ECE60846FFF7CDFDE8E60846FFF741FE4D
:10721000E4E6084600F075F9E0E6084604940594B3
:107220000694079400F0DCF8002803D005F013FF63
:1072300097203EE0A7203CE0102104A8FEF765FA65
:10724000CCE60846049405940694079400F0C8F828
:10725000002803D06C72A8202BE025E0BA2028E09B
:107260000846049405940694079400F0B9F80028A1
:1072700003D06E72AC7299201BE0BC2019E0D320C1
:1072800017E00846049405940694079400F0A8F8C3
:10729000002807D034206946087404A8013006F09D
:1072A00057FBC9E7D42004E0084600F063F995E6EF
:1072B000A02069460874BFE7084600F0D5F98DE6BE
:1072C0007CB515460C4601F0F7FE63A008F064F9A2
:1072D00001222946204608F061F96148007800281B
:1072E0000AD12078202807D06A2805D0122803D098
:1072F0002E2801D0472872D1217834294ED027DC9E
:1073000012294BD00BDC0B000AF0C4FA1069484874
:107310006948486948484848486969694869252969
:107320003CD00CDC222939D004DC132936D02029AA
:1073300055D133E0232931D0242950D12EE02629FC
:107340002CD027292AD02E2928D0332947D125E02F
:107350004B2923D00EDC37390B000AF09BFA131FA0
:107360001F404040401F4040401F1F1F40401F1F04
:107370001F1F4000962911D008DC4D290ED04F293F
:107380000CD055290AD06A2929D107E0972905D0C0
:10739000982903D0992901D0A92920D12A4D092261
:1073A000E87AC10040182F494018214608F026FD10
:1073B000E87A69460870214600A8072209310130A1
:1073C00008F01CFD284A0821684605F093FAE87A7F
:1073D000401CC0B2E872042801D90020E8727CBDCC
:1073E00000221146435C491C9A18D2B20F29F9DBDE
:1073F000C07B904201D101207047002070471FB52B
:107400001A4900240C70FFF7EBFF6946002800942E
:107410000194029403942BD00A2008700020CA7BA8
:107420000B5C401CD218CA730F28F8DB10220748E7
:1074300002F06DFB082805D0002803D0044A8921FA
:10744000FCF746FF01200AE458200020E024002039
:10745000185B0100340400005265763A0000000019
:107460000F20002070250020396F01000720002028
:107470008A2008700020CA7B0B5C401CD218CA739B
:107480000F28F8DB1022954802F041FB082805D0B0
:10749000002803D0924A9A21FCF71AFF002061E4E9
:1074A0001FB50446FFF79CFF002828D06178012013
:1074B000002902D0012902D003E08A4900E08A496C
:1074C00008700020024669460A54401C1028FBDB65
:1074D000A9230B70CA730020CA7B0B5C401CD21816
:1074E000CA730F28F8DB10227C4802F010FB082832
:1074F00005D0002803D07A4A7C49FCF7E9FE012038
:1075000030E430B5044687B0002002900390049028
:1075100005902046FFF764FFA625002822D060785A
:10752000694606F0F4F9002813D0962069460872DF
:1075300060784872487988720879C872C878087388
:1075400088784873487888730878C873887908748D
:1075500001E068460572102102A8FEF7D6F8012066
:1075600007B030BD68460572102102A8FEF7CDF8BD
:107570000020F5E730B589B0002504460395049551
:1075800005950695FFF72CFF002824D0E573601CB5
:1075900006F038F93D2069460873102103A8FEF76C
:1075A000B4F808A90131481C08AA0092C31E019032
:1075B000021F029107A8411CFDF70CF908990798D2
:1075C00000F069FBBFF34F8F4A494948C860BFF3D9
:1075D0004F8F00BFFDE7BD2069460873102103A847
:1075E000FEF793F8012009B030BD70B586B00025D4
:1075F00004460295039504950595FFF7F1FEEA26EA
:10760000002828D0684606F021F86846017862789C
:10761000394891421ED169464978A278914219D1E0
:1076200069468978E278914214D16946C97822790D
:1076300091420FD169460979627991420AD169462E
:107640004979A279914205D16A216A4611720121D4
:10765000017002E0057068460672102102A8FEF76C
:1076600054F8012006B070BD7FB5244909888CB25A
:10767000FFF7B6FE00282ED0002500950195029553
:1076800098206A46039510704B20C0004443A00A1E
:10769000642108F014FC6A46507008460A2108F07C
:1076A0000EFC000140186A469070D57300206946B0
:1076B000CA7B0B5C401CD218CA730F28F8DB10225F
:1076C000064802F024FA082805D0002803D0044A0E
:1076D0000B49FCF7FDFD012006E40000E02400203A
:1076E000185B010046200020472000201102000006
:1076F0000400FA0500ED00E00F20002030200020FB
:107700007F090000674A014612780020002A09D04C
:1077100065480069C00AC007C00F01D00520704746
:10772000022070474B22D2008A1A1B2A00D2012065
:107730005E4A8A18072A00D201205C4AD21F8A18A2
:10774000072A00D20120594A0E3A8A18072A00D285
:1077500002205122D2008A1A072A00D20220534A5C
:107760001C3A8A18072A00D20320504A233A8A1862
:10777000072A00D203204D4A2A3A8A18072A00D243
:107780000420A92292008A1A072A00D20420474A1C
:10779000383A8A18072A00D20520444A3F3A8A1804
:1077A000072A00D20520414A463A8A18072A00D201
:1077B00005200B2292018A1A072A00D205203C4A92
:1077C0009142ABD27047F8B53A4F3868FFF79AFF4D
:1077D000394B00250124394E002804D13248006974
:1077E000800A204010D03868FFF78CFF00280AD0AC
:1077F0002C480078002806D01D703078002802D16F
:10780000FDF784FA3470F8BD2D4805702D481C70C2
:1078100004703078002801D074DF35702A482B4975
:1078200004700B200870F8BDF8B525480125002428
:107830000078AD02274600282BD01B496810C8608D
:1078400002210022084607F04BFE002607F06AFEE0
:1078500080B2854200D90546844200D204463F18D2
:10786000761C0A2EF2DB781B001BC108114801228E
:107870000D4B520201609A604B22D200914205D812
:107880000F4900220A700A4976390160FFF79BFF11
:10789000F8BD252109010748F7E70D490A200870BE
:1078A0007047000015200020000500508DFDFFFFEF
:1078B000C7020000302000201420002011200020EA
:1078C000162000200D2000205C2200200C2000202B
:1078D0006820002010B5FE48FE490069096800686C
:1078E000884201D3642010BD6422504308F0E7FAB7
:1078F000C0B210BD70B50646FFF7ECFF0124F64D8F
:10790000002E11D0642812D3287800280FD1F34814
:10791000F4490470F248047006200870FCF713FD67
:10792000F1490420087001E0642800D32C7070BD78
:10793000F0B5EE480026007887B000287ED0EC48ED
:10794000ED49E34B0278EB480C781D69002A03D01F
:107950002968026A914204D1002C7CD0416AA1427C
:1079600079D0E44829684462016200206F463E54A1
:10797000401C1028FBDBE248E04900680AF068FB85
:1079800009F0E0F909216A461170DE4909780029F9
:1079900009D0002C07D0F02269464A708E70CC7056
:1079A000D4494C620DE0296849024A0E69464A7082
:1079B00029880A0A69468A702A78CA70CD492A68D5
:1079C0000A62020C6946CA71020A0A72487204A964
:1079D00005A80AF057F9BE48049C05697D2128686E
:1079E000C900604308F06BFA000C69468872286889
:1079F0007D216043C90008F062FA000A6946C87236
:107A000028687D216043C90008F059FA6946087367
:107A1000BD483C21006808F052FA020A69464A73E0
:107A20008873CE7300206A46D17B3A5C401C89186B
:107A30006A46D1730F28F6DB102200E00BE069469E
:107A4000B24802F064F8082805D0002803D0B0A29C
:107A5000A521FCF73DFCB2480078002804D09C48E2
:107A600000690660A648066007B0F0BD10B5AC48D6
:107A70000078002803D10AF03FF9FFF759FF10BD45
:107A8000F8B5A8489B4C0378A748A1780278E0781D
:107A9000491C401CA54F0A260025C0B2C9B2002BC4
:107AA00035D0002A2ED0E070C00703D0102000F09F
:107AB00039FD03E0102000F030FD3E709C4E307820
:107AC000002807D09B480570FCF73DFC864809213B
:107AD00001703570834904200870974FE078398829
:107AE00088420ED9102000F01DFD002005F08EFF09
:107AF0008C48E570057001203070FCF73DFC1E20BD
:107B00003880C1E0A1700329FBD98CA133E08E4BF2
:107B10001B78002B33D0002A29D0E070C00703D097
:107B2000102000F0FFFC03E0102000F0F6FC3E7097
:107B30007F4F3878002806D07E480570FCF703FC9C
:107B4000694806703D70674904200870E078032892
:107B50000CD9102000F0E6FC002005F057FF7A4811
:107B6000E570057001203870FCF706FC8CE0A17010
:107B7000032903D975A16C4808F0F8F884E0754929
:107B80000A786B49002A09782CD0002903D005F027
:107B90009DFF67480570E078401CC0B2E070062881
:107BA0000FD8C00705D0102000F0BCFC07F067FB21
:107BB0000AE0102000F0B1FC3E70002005F026FF26
:107BC00002E0102000F0AEFCE07809285CD910201B
:107BD00000F0A8FC002005F019FFFCF7CDFBE570D4
:107BE0005C482FE05C4A1278002A30D0002903D08C
:107BF00005F06CFF4E480570E078401CC0B2E070A4
:107C000006280FD8C00705D0102000F08BFC07F025
:107C100029FB0AE0102000F080FC3E70002005F0F7
:107C2000F5FE02E0102000F07DFCE07809282BD959
:107C3000102000F077FC002005F0E8FEFCF79CFB2C
:107C40004548E57005703A49012008701CE0234959
:107C50000978002918D0E07006280AD2C00703D09E
:107C6000102000F05FFC0FE0102000F056FC3E708A
:107C70000AE0102000F056FCE0780C2804D9FCF74C
:107C80007BFB1648E570057034490878002801D060
:107C9000401E0870F8BDF3B5314895B0017810A8C2
:107CA000077D407D119010A8807D109010A8408B1A
:107CB0000F9010A8467E057EC47D00297ED00DA8B9
:107CC00005F0C8FD08A8017D6846017708A849E0CD
:107CD000FC240020642000205A200020482000209E
:107CE0000D2000205C2200200C2000200720002016
:107CF000CC2200206C200020DB2000200000C842A5
:107D000090230020D7200020C8220020E02400205B
:107D10002E2E5C74696D65426C652E630000000058
:107D2000122000200520002050250020682000207F
:107D30004C2000200A2000201E20002070686F6E5A
:107D4000652063616C6C0000062000206D65737314
:107D50006167650046200020472000201920002090
:107D60005D200020417D6846417708A8817D6846F6
:107D70008177418F418408A8417E4170017E017066
:107D8000C17D6846C177FE48FE4A0178127891436A
:107D900001D000210170FC4812A900690068009020
:107DA000FA480068019013A809F06CFFF6480069D2
:107DB0000068002809D01299484300E064E07D2162
:107DC000C90008F07CF809F001F80290F04800685A
:107DD0000390FFF77FFD69460874684605F0C0F917
:107DE000EC4809AA037808990798FCF7D9FD09AA75
:107DF0000899079805F03EFBE6480078002841D036
:107E0000E149002009690860E0490860E04908602C
:107E1000E049087069460F77119A4A77109A8A7775
:107E20000F9A4A8408A94E700D706946CC77D649DE
:107E300009690968009101900DA90EA809F022FFB7
:107E4000D1480D990069006848432BD0002002906A
:107E5000CF4800680390FFF73DFD69460874684607
:107E600005F07EF96946488C08A9087108784871C0
:107E70006946C87F08A988710020C87108720A90F5
:107E80000B900C9017B0F0BD6846077711994177B9
:107E9000109981770F99418408A84670057068464B
:107EA000C47770E77D21C90008F009F808F08EFF5B
:107EB000CDE773B584B00020009001900290694630
:107EC00003908E7C304604F0E1FF69464D7C8400CF
:107ED000284604F0DBFF0F2107F0F1FF2418694664
:107EE000C88A0870087D4870C87C8870304604F0E5
:107EF000CDFF8600284604F0C9FF0F2107F0DFFF01
:107F000030186946C870FF200871641C6D46E4B2E1
:107F10000822A149681D07F071FF6946204605F057
:107F20007DFA641EE4B208229C49681D07F066FFD2
:107F30006946204605F072FA06B070BD9948984926
:107F400041600121816098480160704798499748D5
:107F50000860704710B5974CE079002804D0206B7A
:107F600003F075F90020E07110BDFEB50A46014628
:107F7000684607F043FF8E498C4808608E480178B8
:107F8000002906D0491E0906090E017001D101F031
:107F9000A1F80020FDF785F8884908608848006945
:107FA00001264005C00F002803D086480670FFF761
:107FB0003BFC854F3878002808D0401E0006000E94
:107FC000387003D1FFF730FCFFF7FDFB7F49794D97
:107FD00008780024002827D0287B401CC0B22873D2
:107FE000032802D90C70FCF7C7F90120FFF782FCC7
:107FF00077480178002901D0491E01707548067044
:1080000075480178002908D0C8070FD0102000F06B
:1080100089FA71480178491E017070486C710178C5
:108020006F4F002911D107E02C73DEE7102000F01C
:1080300074FA0A203870ECE76A496B4A09781278BA
:1080400011436A4A127811431CD0297A491CC9B2DB
:1080500029723C2902D83978002914D05F482C7243
:108060000470604804706048047060480470102018
:1080700000F058FA59485F4904705D4806701E20A8
:10808000088000E02C725C4A5C48117800290CD012
:10809000697A491CCBB26B72A97A491CA972EC723D
:1080A0000470032B0FD914700DE06C720178002955
:1080B00009D0E97A491CC9B2E972012903D9EC72E5
:1080C00004704A4806703B48007900280AD0397885
:1080D000002907D1401E37490006000E087101D162
:1080E000FFF738FF4648017800290ED0387800287D
:1080F0000BD1491E42480906090E017005D14149BC
:108100000C7006210170FCF737F93F480078002811
:1081100035D13E480078002803D01D480168491C2D
:108120000160FFF7ADFC1B480078002803D00199DF
:108130000098FFF7B0FD6846057839782846114F5A
:1081400008431BD128483A7800781043084308D1E7
:108150000D48019900690268009805F010FB22495A
:108160000870204801781E480078014306D1022299
:108170000199009805F0A8FA1A49087048E07CE0D7
:108180005F2000205E200020FC240020902300209F
:10819000C82200205D200020AC230020A423002062
:1081A000FFFF4A0000050140000001403546526EC5
:1081B000000601406C200020D62000202C2000204A
:1081C000000500501620002068200020A520002077
:1081D0006020002030230020042000200520002003
:1081E00015200020462000204720002006200020E7
:1081F0004C2000201E200020092000200820002004
:108200005C2200200B200020122000209C22002055
:10821000C749C8480A78062A04D00470387800286C
:108220000FD10CE00278C44B521CD2B2027006206F
:108230001870052AF2D3C1480C7006703C70C04813
:108240000460592D03D101990098FFF724FD684679
:108250008078232811D16846407859280DD1592DAE
:108260000BD1B84800690460B7480460B74804609F
:10827000B74804614461B7480470FEBD10B5B64804
:1082800086B04368B24CB54AA1698B4202D9A37942
:10829000002B1DD04368591A01231B06C9189142AF
:1082A00047D30121A1714068A061AD480168491C14
:1082B00001606079401CC0B2607114280BD9BFF313
:1082C0004F8FA949A748C860BFF34F8F00BFFDE794
:1082D0004368591AE3E704A8013004AA411C00923C
:1082E000831E0290C21E019103A8411CFCF772FA82
:1082F0009148007800281ED09C4A082103A804F069
:10830000F9FA6846807B002813D16846407B002834
:108310000FD16846007B02280BD18A4900200969E9
:10832000086089490860894908602061894960615D
:10833000087006B010BD082103A8FFF716FEE0E79D
:1083400010B5834C8B49E069401CE061884809788E
:108350000078084388490978814301D000F058FF2C
:10836000607B401CC0B26073062805D90020607392
:10837000824A014604F0BEFA10BDF0B589B0002073
:108380006D4606462E54401C1028FBDB4320287007
:10839000F0206F4C687008A92078087078480A4669
:1083A00004A9007805F023F908A909782778B942CB
:1083B00001D1002828D00E21A81C07F07CFD7148AF
:1083C000017868468170704801786846C1706F48CE
:1083D000017868460171477100206A46D17B2A5CAA
:1083E000401C89186A46D1730F28F6DB10226946B3
:1083F000674801F08CFB6749884225D161780A29DA
:1084000022D2491C617027E05E480178684681707D
:108410005D4801786846C1705C4801786846017122
:108420004771017D8171417DC171817D0172C17D85
:108430004172017E8172417EC172817E0173C17E73
:108440004173017F8173C7E72178491C21706670F1
:10845000082805D0002803D04F4A5049FBF738FFC1
:1084600020785F2803D9FBF75CFF2670667009B09F
:10847000F0BD82E710B5364C1E202071E07900284F
:1084800006D100228321206B02F0A6FE0120E071BC
:1084900010BD08B50020424B06220521009002F0D5
:1084A00002FE002804D03D493B4A2B31FBF710FF68
:1084B00027483C4A0121283002F047FE002804D01A
:1084C0003649354A3031FBF703FF2148364A01214E
:1084D0002C3002F03AFE002804D030492E4A3531C3
:1084E000FBF7F6FE1A48314A0121303002F02DFE2A
:1084F000002804D00121284A8902FBF7E9FE14482C
:108500002B4A0121343002F020FE002804D02349F8
:10851000214A3E31FBF7DCFE08BD012181402548A0
:1085200081607047012181402248C160704700008E
:108530000C2000204B2000205C2200200D20002079
:1085400098230020FC240020C82200209023002033
:108550006C2000205A200020001501401027000048
:10856000442200200400FA0500ED00E06B7F0100CA
:1085700012200020142000200A2000202D89010054
:108580004A200020532000205420002055200020A5
:10859000E024002003300000107D0100C60300002D
:1085A000A02500206D7A01007D8201004183010039
:1085B000738401000005005010B5FFF75BFF10BD8C
:1085C00010B5FFF757FF10BDF8B5A148A14B0778CC
:1085D00001200022A04DA14E0624A1495870002F71
:1085E0002A7006D030700C70FBF7ADFE9D48047009
:1085F000F8BD9C4A0523137030700C70FBF7A3FE86
:10860000F8BDF8B598480078002827D1914E00248D
:10861000707805270125002821D074709349042023
:108620008B4E087031780120414031708A4906250F
:108630000C708C4C89492770087089480570FBF7CD
:1086400082FE3078002802D02770012001E02570DA
:10865000002009F0BBF8864901200870F8BDFFF73B
:108660001CF98448844A0078127801461043834AF2
:10867000834B127810431A781043824A1278904341
:1086800016D0B078804A401CC0B2B070022839D9E8
:1086900078487E4904707848047078480470012056
:1086A0001C700004C8607A4805701E201080F8BD58
:1086B000B570002AFBD16B4908780D280BD0644AAD
:1086C0001278002A0AD0654A654B157006221A7086
:1086D000002811D00EE06F48057010E0401CC0B2B9
:1086E0006D4A087017705D4A5D4B157006221A704E
:1086F000042802D90C7000E00F70FBF724FEFFF78E
:1087000062F8F8BD0029FCD01580F8BDF8B5514CD1
:108710000227E07A01260025002815D0E5720A20FC
:1087200000F08FF8012801D1257227710B2000F08D
:1087300088F8002801D166726771152000F081F871
:10874000002801D12670A7712078002802D00128C6
:108750001BD10CE0152000F074F8012813D1A0798A
:10876000401E0006000EA0710FD126700BE01520F0
:1087700000F067F8002806D1A079401E0006000E20
:10878000A07102D125700620A071A089002801D017
:10879000401EA081E079002808D0012827D10F20B1
:1087A00000F04FF8002834D0E58130E00F2000F0D1
:1087B00048F83449012809D0E089401C80B2E081A2
:1087C0000978002917D0E581E67120E0E078401EA5
:1087D0000006000EE0700AD1E6710878002806D184
:1087E000E089822803D8A089002801D0A581F8BD9E
:1087F000FFF707FFF8BD822806D9A07A002806D126
:10880000A672FFF7E1FE02E0822800D2A572E770AF
:10881000F8BDE078401E0006000EE070F8D1E5716A
:10882000F8BD0C4810B500231C4A0221103003F09B
:1088300077FD002804D0FF2119A2B631FBF748FDCF
:1088400010BD12490969C140C807C00F7047000038
:108850005E200020A4200020192000200D200020F0
:108860005C2200200C200020152000200420002085
:108870005F20002005200020462000204720002007
:1088800006200020122000201E200020000500509D
:108890004C200020492000201820002066060000FF
:1088A0002E2E5C627574746F6E426C652E630000D0
:1088B00070B50A2000F0CDFB0025FD4C012808D042
:1088C00025706570002005F0A1F8FBF755FD00202C
:1088D00070BDFBF738FD20780222401CC0B2F5497C
:1088E00020700A700328F2D925706078401CC0B24D
:1088F000607003280AD2F04A012010700620087028
:10890000FBF721FD01221146607801E001220021E0
:1089100005F00BFB60786428D9D9257065700020BC
:1089200005F074F809F0BCF9012070BDF0B58DB008
:10893000FFF7ECFE0A2000F08CFBE04FE04D002634
:108940000124002805D00A2000F083FB012819D05B
:1089500065E0D748DB4986702E700E70C07800281D
:1089600009D03C70FEF760FFFEF72DFFD6490320CB
:108970000870CF48C670D548007800284FD0FFF760
:1089800097FF4CE03C70D14F3878002823D0FFF798
:108990008FFF00281DD0CE483E70CE490670086972
:1089A000D14D0660CC480660CC4806600869016875
:1089B000CB480160CB4806602878002802D1FCF73C
:1089C000A5F92C70C948BB490470B94886700620C7
:1089D00008700DB0F0BDB64FFC70B8785A281ED2A2
:1089E000401CC0B2B870012802D0502821D013E03A
:1089F000B148B049047006200870FBF7A4FC05F0EC
:108A0000CAFF0120BA490004C860BA48BB490670D1
:108A1000B94804701E200880B8785028D9D3AB48D4
:108A2000B74A00781278014610432A7810430AD0DA
:108A300055E0A1480470A3480470A5480670B148E9
:108A40002C700470EBE7B048B04F007804282BD3AB
:108A5000974D2879002809D0964906200870387863
:108A600000281CD0AA48012100781AE0A14806700D
:108A7000A8480670A8480670A8480670FBF763FC73
:108A80008D48002104709F483E700470084606F02F
:108A90008AFAA3482C710670A248067099E7002153
:108AA000012006F080FA94E781480279002A12D06A
:108AB0003E7006719C4804709248047084480670A9
:108AC0007D480470FBF73FFC95480078002806D0ED
:108AD00004F0D8FE03E08B4800780843DED07C48E1
:108AE00000780D2829D07649904F0978904D0029BB
:108AF00040D0FEF7D2FE7F487D490670854806705B
:108B0000854806708548067001200004C8607048DA
:108B100006700B2000F09DFA002801D00520286087
:108B20007848007800287DD063480078002868489D
:108B3000007878D0002877D1DFE1002006F0DEFA57
:108B40007C4801780029A9D00670614806707A48EF
:108B500004707A4804F073FDFBF70EFC0896099642
:108B60000A96212008A90B960870102108A8FCF786
:108B7000CCFD2EE75549097800298FD15D49654A1A
:108B8000097812781143644A12781143634A1278C3
:108B900011435C4909780FD00029C4D046490A78AE
:108BA000002AC0D00E7007287DD008287CD0092864
:108BB0007BD00A2836D199E10029B4D03E490A7801
:108BC000002A73D00E70030008F064FE0C07555A9B
:108BD0005CD6E0E36D6EE62CE92CFEF725FE384806
:108BE0000078002802D033490320087007A801301C
:108BF00007AA411C0092831E0290C21E019106A882
:108C0000411CFBF7E7FD08A806746846807E0CA9A6
:108C1000FBF731FE6846807E01461239112908A90A
:108C200005D802E016E1C6E1C2E10E7400E00C7462
:108C300043490978002913D00CA9FBF71CFE2868CA
:108C4000FEF760FD05466946887EFBF783FE3D49D9
:108C50003A780978C0B20396059404920291E8E14B
:108C60002868FEF74FFD37493A780978039605944E
:108C700004920291E4E01748012100690068EEE0E7
:108C80000121F0E0694601A808F0FCFF2E48009998
:108C9000007800280F480069006865D0484308F054
:108CA00095F82A4954E019E11BE11DE17AE0000042
:108CB000CC2000205C2200200D2000201620002067
:108CC000152000202C2300206820002012200020E6
:108CD0000C200020FC24002090230020C82200202B
:108CE0007C20002080200020112000201020002067
:108CF00000050050052000204C2000201E200020F0
:108D0000142000200A200020D4200020D72000209A
:108D1000D9200020462000204720002006200020E7
:108D2000DA200020DB2000200B2000205E20002025
:108D300030200020492000200F2000204D2000205E
:108D40005B2000200E200020582000200050C34748
:108D500007F048FF07F01CFFC14AC24B07F0F4FDC3
:108D600007F05EF901229EE0484308F02FF8BE4963
:108D700007F038FF0122A1E0FEF7ACFDBB49C0B20D
:108D800048710022012105F0D0F8B3E006F002FAA4
:108D9000B0E006F00CFAADE00121B5A0A8E005F0C6
:108DA0000CFEA7E0030008F075FD0504565D638B1B
:108DB000A50007A8013007AA411C0092831E02905B
:108DC000C21E019106A8411CFBF704FD08A8067409
:108DD0006846807E0CA9FBF74EFD6846807E014602
:108DE0001239112908A901D80E7400E00C74A849A1
:108DF000097800291BD00CA9FBF73DFD2868FEF778
:108E000081FC04466946887EFBF7A4FDA1493A78B7
:108E10000978029103960596049208A9097CC0B2CC
:108E2000019400916946CB7E0A7F497E10E0286854
:108E3000FEF768FC97493A7809780396029105E1B4
:108E40000221019000916846C37E027F417E807EB0
:108E500005F004FE4EE0904800210069006806F02D
:108E600060F947E000218D48006806F07EF941E096
:108E7000694601A808F006FF894800990078002893
:108E800085480069006812D0484307F09FFF764983
:108E900007F0A8FE07F07CFE714A724B07F054FD04
:108EA00007F0BEF80022012106F042F922E0484313
:108EB00007F08CFF6C4907F095FE00220021F3E7D4
:108EC000FEF708FD694CC5B26079854212D00422D4
:108ED0000021284605F029F865710BE006F0C2F97B
:108EE00008E006F0CCF905E0002100E001216D4822
:108EF00006F06AF905F011F96BE5FEF7CEFC6A4859
:108F00000078002854D069490320087007A901316E
:108F1000481C07AA0092C31E0190021F029106A8D6
:108F2000411CFBF757FC08A806746846807E0CA914
:108F3000FBF7A1FC6846807E01461239112908A979
:108F400001D80E7400E00C745149097800291BD037
:108F50000CA9FBF790FC2868FEF7D4FB0546694690
:108F6000887EFBF7F7FC4B493A7809780291039425
:108F70000594049208A9097C009101956946CB7E6D
:108F80000A7FC0B2497E11E02868FEF7BBFB414969
:108F90003A78097802910594022101900394049291
:108FA00000916846C37E027F417E807E05F056FDBB
:108FB0003F4806709EE700289CD13B480078002877
:108FC00098D03A490320087007A8013007AA411C2D
:108FD0000092831E0290C21E019106A8411CFBF75D
:108FE000F9FB08A806746846807E0CA9FBF743FCD1
:108FF0006846807E01461239112908A901D80E74ED
:1090000000E00C7422490978002917D00CA9FBF75D
:1090100032FC2868FEF776FB05466946887EFBF73A
:1090200099FC1C493A780978C0B2059603940492D9
:10903000029108A9097C01950091F3E62868FEF7E2
:1090400061FB14493A7809780394029105960492D9
:10905000F6E618490969C140C807C00F704700000B
:10906000AC1C5A643BDFE33F0050C347CC200020D8
:109070005A686F75205368656E6720282B3836292B
:109080003135342D3333323438393736000000006F
:109090005B2000200E200020FC24002090230020D4
:1090A0005820002050250020152000205C220020A0
:1090B0000D2000200005005010B588480621817061
:1090C0004178002905D1012141703C210F2001F098
:1090D0005CFE10BD10B581484178002905D0002103
:1090E00041709621282001F050FE10BD70B57C48DB
:1090F00001240460001D0460001D046078481C30D9
:10910000046077490020091F0860162000F0E0F88D
:10911000182000F0DDF81D2000F0DAF8172000F02C
:10912000D2F86E4D32202C7106F0ADFBFA2028816A
:10913000FFF7C2FF70BD10B5182000F0C9F81D2060
:1091400000F0C6F8172000F0C3F8162000F0C0F8B1
:1091500062490020087110BDF8B5604C00252079E7
:1091600001226049002807D02089002808D02570F6
:109170000A70401E2081F8BD25700A70FA20F9E7B8
:1091800058482778017855480426C0683B00401E9F
:1091900008F080FB07050B162224291A310000294C
:1091A000E9D1514805702270F8BD002914D1022080
:1091B0002070FF20F530E060162000F084F8F8BD44
:1091C000002901D0257003E0E0600028F7D1267067
:1091D000162000F07DF8F8BD2570F8BD0029FCD000
:1091E00003202070F4E7FA20E060162000F06BF80E
:1091F00006202070F8BD102000F065F8642001F012
:1092000011FD3A490A200870102000F061F8E3E7E8
:10921000F0B585B0FFF7A0FF304C2078042850D17E
:1092200032490A20087000220721104606F058F93A
:1092300006F078F92E4F20613E782E490025002E49
:109240000CD0097800291FD02C492B4B0A78985450
:10925000521CD0B208700E2802D015E00D7013E039
:109260000D70009501950295A92069460395087037
:1092700000A80E222049013006F0C0FD002E03D0C8
:1092800010216846FCF741FA208A01B21348401DBC
:1092900006F0FDFA002814DD0120E070E079A071ED
:1092A0006079E071397800290BD00095019502951D
:1092B0009422694603950A70487010216846FCF7AD
:1092C00024FA05B0F0BD012181400D48816070474E
:1092D000012181400A48C16070470000D42000206D
:1092E00058070050A42000207C2200206820002085
:1092F0000E2000206120002078280020622000201D
:109300000005005010B5FD4C6168A068884210D07F
:109310002C21FB4A484381184B68012B0AD0105A74
:109320001C3197DF002804D1207A401C4007400FF1
:10933000A06010BD105A0989002295DFF2E738B508
:109340000546F04A6846012102800224847028897B
:109350006A4690DF010003D0284600F0BCFA38BD11
:10936000E648C46038BD38B50446E748018CFF299B
:1093700003D0818DFF2908D014E0C08B6946401CC2
:1093800008804880208993DF06E0408D6946401CB4
:1093900008804880208993DF010003D0204600F038
:1093A0009AFA38BDD5490420C86038BDFEB50E46CE
:1093B000C98807460846FF380B3807D0093005D062
:1093C000002913D0384600F086FAFEBDCE48C18B86
:1093D000002909D0418A002906D0408D002803D0F9
:1093E0003846FFF7C0FFFEBD0521EBE7C648002465
:1093F00001460A3102910C3122302546019100903C
:1094000016E00A2068438419E189C0480E3409181F
:1094100009D0BF48081819D0BC49C91CC84206D198
:109420002146029801E02146019800F07AFA6D1C6D
:10943000B089A842E5D8002C0BD020896946401C91
:109440000880B14800894880384605E021460098E8
:10945000EBE7AD493846891D00F04AFAFEBDF7B585
:10946000A74D00241646A54F303D5EE03869030045
:1094700008F010FA09060B10151A1E2328375A0097
:109480000198005D287201204DE00198005D68722E
:10949000022048E00198005DA872032043E0019893
:1094A000005DE87204203EE00198005D287339E019
:1094B0000198005D6873062035E00198005DE88141
:1094C000072030E00199E889095D09020843E88135
:1094D000082038618A4820387861002078803880F8
:1094E00022E078881F2805D201997A69095D115414
:1094F000401C78803888401C80B23880E9898142DD
:1095000012D17888202801D11F20788080B2E8818C
:109510007A69002111540320286000980168784876
:109520003038884705203861641CB4429EDBFEBD9C
:10953000FFB51646714A81B0D0681D46052802D095
:10954000082005B0F0BD50682C234343401C400761
:10955000400F50606A4C6C481C19408AE0832046DA
:109560000830606200272784012020772046277278
:109570000422093006F042FC05200FE02978221869
:1095800011726988401C002905D022181172401CF4
:1095900021180F72401C761EF6B22D1D002EEDD143
:1095A000608401980089208002206060FFF7AAFE95
:1095B0000020C6E770B50446088A0C3190B0022836
:1095C00044D3514A0B88D58B1046408DAB4204D111
:1095D000167E6B469E71D28A07E0834236D14A4B93
:1095E00020331E796B469E71528C9A800A88AA425B
:1095F0002ED188791872C8795872087A9872487A88
:10960000D872488998818889D88102200090216881
:10961000184688476A46107A002817D1012108A801
:10962000017420215186032202756846C1860CAB65
:10963000022203A92046FFF77BFF002803D035A2B2
:109640003849FAF745FE2D490020086110B070BD79
:109650008242FBD18A882046891DFFF700FFF5E78B
:1096600070B5044625480121274DC1602978FE299F
:1096700005D10A216156491C09D0A17A2970090631
:10968000090E04D180692E221F4906F0B7FB2E2156
:109690001D4806F010FCFF202870E0720020C04337
:1096A0002081A07270BD0A68002A01D0012A01D170
:1096B000097981727047F8B5104D0A88EC68FF2768
:1096C000114E230008F0E6F8073E054761666B334C
:1096D0004200102A36D1898801810A214156044668
:1096E000481C21D02E204143A8692E220918064883
:1096F00006F084FB0620E86017E00000E820002068
:10970000B828002031F40000482A0020F3EDFFFFC4
:10971000244BFFFF2E2E5C626C655F616E63735F8E
:10972000632E6300C50200003770204608E0172A48
:1097300001D0142A0AD171889D4A914203D0377012
:10974000FFF7FDFDF8BD00F0E1F8F8BD112AFCD1EE
:10975000FFF786FFF8BD302AF8D10A46C9880029EC
:1097600002D000F0B8F8F8BD117C3171D189718058
:109770009189002907D0518AF180918A3181B11DE8
:1097800000F0B6F8F8BDD188EBE7322ADED1FFF75A
:109790000DFEF8BD332AD9D100F0D0F8F8BD382A33
:1097A00004D0372AD2D1FFF7ADFDF8BDFFF702FF95
:1097B000F8BD100003D07F49C96949680847704760
:1097C0007CB50A68002A29D002604A6842600022FB
:1097D000D24382720024C4728A68C260C96801617F
:1097E000611E0181FF252E21734806F064FB73483A
:1097F00069460463446370486E4C05700120E06064
:10980000C880302088806E4821460090203168460C
:1098100000F00EFC68493039A1617CBD07207CBD99
:1098200070B5644D2C236C68644E6343641C6407FC
:109830003036640F9B196C60D98302211C46598411
:1098400008345C6200241C8401241C771A72120AFA
:109850005A7218805960FFF755FD002070BD5649B7
:109860000089098C0122DBE753490089098C002219
:10987000D6E751490089898D0122D1E74E490089F7
:10988000898D0022CCE74B494B4810B5002330228C
:109890002031303800F0E8FC002806D04549FF228E
:1098A000896905280A7000D1002010BD424941484D
:1098B00010B5002330223039203000F04BFC10BDB1
:1098C00010B53C48C068002804D03A483021203008
:1098D00000F00FFD10BD00B5364B8DB00722DA60E9
:1098E0000122009202910168684688470DB000BDD0
:1098F00030B40446008992DF010002D0204630BC1B
:10990000E9E72C490320C86030BC704700B5294AFC
:109910008DB00521D160002100910168684688471B
:10992000E4E78A7882700A8802800A790271CA881C
:10993000C28009890181FF214181704770B5CA88C1
:109940001346FF3B0B3B07D0093305D0002A05D057
:109950001146FFF7C0FF70BD0521FAE78A89164B53
:10996000002A19D0CA895E8A551E164CAE4204D10F
:10997000098AA14210D19A820EE0DE8BAE4204D158
:10998000098AA14208D11A8406E05E8DAE4203D155
:10999000098AA14200D19A85198CFF2905D0998D99
:1099A000FF2902D0FFF7B2FF70BDFFF7DCFC70BDEE
:1099B00031F40000E8200020482A002088280020F8
:1099C000B397010002290000F0B500240546601C91
:1099D00001078FB0090F08A8103108940170601CAE
:1099E0000107090F08A8103141708178F927394023
:1099F000891C81701C2101A806F05FFA6846017974
:109A00001020014368460171029408A8049405944B
:109A100001260794069086710821C943684681840F
:109A20003146103100940170314610314170817817
:109A3000F7203940891C0140EF200140314368463E
:109A4000817014210AA806F038FA09A80A9068461D
:109A50000B9006861421448681862B4668880C3339
:109A60000AAA01A9A2DF0FB0F0BD00281ED000296C
:109A70001CD00A88102A14D0112A14D0502A15D1CB
:109A8000CA88038A891D9A4202D10B8B022B0ED001
:109A900083889A420AD18369002B07D00A8B1A3136
:109AA0001847898801E00021C94381827047CA7E36
:109AB0008B7E11021943C907C90F00D0012181759E
:109AC000704738B50D4604001FD0002D1DD0002072
:109AD000C043A0822868A0610020A07501216846CB
